:03000000020003F8
:0C000300787FE4F6D8FD75813E02004ACB
:0E028000050D787878787805087878787878A1
:0C028F007FC87E647D19DDFEDEFADFF61C
:01029B002240
:09026C00D2927F0A1202757F0A8A
:0B027500EFD394004004001F80F6222D
:10022300E4F587758920758DFA758BFAD2AFD2AC58
:09023300D28ED29CC29FD29E2201
:0802B3008F993099FDC29922D8
:10008F007F64120275C292D293C2977A00790812D6
:10009F0001537D017F2112025B7D017F2212025BE2
:1000AF007D037F2312025BE4FD7F2412025BE4FDDC
:1000BF007F2512025B7D3F7F3112025B7D077F261A
:0A00CF0012025B7D0E7F2002025B2F
:10023C00E4FEEF339295EF25E0FFD297A296E433DC
:08024C004207C2970EBE08EA4A
:010254002287
:0C029C00C29312023CE4FF12023CD29319
:0102A8002233
:06025500C2927D0F7F2024
:10025B00C29312023CAC07AF0512023CD293AF041F
:01026B002270
:0601C1008B388A39893AEF
:1001C700C29312023CAD07E4FCECC3953B5017E425
:1001D700FF12023CAB38AA39A93A8C82758300EF2B
:0A01E7001201310C80E3D293AF0542
:0101F10022EB
:070153007B007538057F2ACF
:06015A008B358A3689375F
:10016000C29312023CAD07E4FCECC395385018ABC7
:10017000350537E537AA367002053614F91201182D
:0B018000FF12023C0C80E2D293AF059E
:01018B002251
:0A02A900120255D2927F8202027504
:0601F2008B348A358936CA
:1001F800E4FB12025512026C7F0712029C8F12C296
:1002080092AB34AA35A936753B207F611201C17BB8
:0A021800017D077F2712025B7F01C2
:0102220022B9
:1000D9008B3C8A3D893EC2927D0E7F2012025B7F56
:1000E9000712029C8F127A00790D120153AB3CAAB8
:1000F9003DA93E7538207FA012015A12026C1202E6
:0F010900577D077F2712025BD2927F0A02027591
:10018C0012008F12022312028F7B007A0079131255
:10019C0001F2EF60F47F731202B3E4F533E533C37D
:1001AC00942050E574132533F8E6FF1202B31202C3
:0501BC008F053380E80F
:10000F0002018CE493A3F8E493A34003F68001F27A
:10001F0008DFF48029E493A3F85407240CC8C333F2
:10002F00C4540F4420C8834004F456800146F6DFC1
:10003F00E4800B0102040810204080900280E47ECF
:10004F00019360BCA3FF543F30E509541FFEE493B6
:10005F00A360010ECF54C025E060A840B8E493A37D
:10006F00FAE493A3F8E493A3C8C582C8CAC583CAA8
:10007F00F0A3C8C582C8CAC583CADFE9DEE780BE60
:01028E00006F
:10011800BB010689828A83E0225002E722BBFE02E5
:09012800E32289828A83E4932218
:10013100F8BB010DE58229F582E5833AF583E8F004
:10014100225006E92582C8F622BBFE05E92582C8B0
:02015100F22298
:00000001FF
