:0601A500010E00010F0035
:0800ED007F017E007D007C0014
:0800F5008F0B8E0A8D098C08A7
:1000FD00750C19750D32E4FFFEFDFCAB0BAA0AA9B8
:10010D0009A808D3120184401AE50B24FFF50BE56D
:10011D000A34FFF50AE50934FFF509E50834FFF562
:09012D000880D3D50DD0D50CCA11
:0101360022A6
:10008F00E511D39470401AE51194805014E5129441
:10009F0070400EE51294805008D2A0D2A1D2A2D205
:1000AF00A3E511C394715008D2A0C2A1D2A2C2A3DA
:1000BF00E511D394814008C2A0D2A1C2A2D2A3E578
:1000CF0012C394715008D2A0C2A1C2A2D2A3E5124A
:0E00DF00D394814008C2A0D2A1D2A2C2A32213
:10019500758901758CFF758AF6D28CD2A9D2AF22EA
:10016300BF0106C2B5D2B48007EF7004D2B5C2B4E2
:10017300D2B6C2B6D2B71200EDC2B71200EDD2B7F3
:010183002259
:100137001201957F01120163859011851190C2A06C
:10014700D2A1C2A1D2A1E4FF120163858012E511F9
:0C01570075F0FF8475F064A4F51080D7EB
:03000000020003F8
:0C000300787FE4F6D8FD75811202004AF7
:10018400EB9FF5F0EA9E42F0E99D42F0E89C45F0D1
:010194002248
:10000F00020137E493A3F8E493A34003F68001F2CF
:10001F0008DFF48029E493A3F85407240CC8C333F2
:10002F00C4540F4420C8834004F456800146F6DFC1
:10003F00E4800B01020408102040809001A5E47EAB
:10004F00019360BCA3FF543F30E509541FFEE493B6
:10005F00A360010ECF54C025E060A840B8E493A37D
:10006F00FAE493A3F8E493A3C8C582C8CAC583CAA8
:10007F00F0A3C8C582C8CAC583CADFE9DEE780BE60
:0101AB000053
:00000001FF
