:03000000020003F8
:0C000300787FE4F6D8FD75813F02004ACA
:100197002020130102030405060708091011121392
:1001A7001415161718192021222324252627282954
:1001B700303132050D78787878780508787878784E
:0101C70078BF
:0C02A3007FC87E647D19DDFEDEFADFF608
:0102AF00222C
:10023C00E4F587758920758DFA758BFAD2AFD2AC3F
:09024C00D28ED29CC29FD29E22E8
:0802BD008F993099FDC29922CE
:09026E00D2927F0A1202777F0A86
:0B027700EFD394004004001F80F6222B
:10008F007F64120277C292D293C2977B007A007973
:10009F000D753A057F301201657A00790812015EFD
:1000AF007D017F211202827D017F221202827D0358
:1000BF007F23120282E4FD7F24120282E4FD7F255A
:1000CF001202827D3F7F311202827D077F2612024C
:0800DF00827D0E7F20020282E7
:10025500E4FEEF339295EF25E0FFD297A296E433C3
:080265004207C2970EBE08EA31
:01026D00226E
:0C02B000C293120255E4FF120255D293D3
:0102BC00221F
:10028200C293120255AC07AF05120255D293AF04C6
:010292002249
:0601C9008B3C8A3D893EDB
:1001CF00C293120255AD07E4FCECC3953F5017E400
:1001DF00FF120255AB3CAA3DA93E8C82758300EFFE
:0A01EF0012013C0C80E3D293AF052F
:0101F90022E3
:07015E007B00753A057F2AC2
:060165008B378A3889394E
:10016B00C293120255AD07E4FCECC3953A5018ABA1
:10017B00370539E539AA387002053814F91201230D
:0B018B00FF1202550C80E2D293AF057A
:010196002246
:10029300C2927D0F7F20120282D2927F8202027766
:1001FA00C2927D077F271202827D0F7F2012028220
:10020A0012026E7F071202B08F12C292753F207FD0
:06021A00611201C97F0121
:0102200022BB
:1000E7008B338A348935C2927D0E7F20120282AD0E
:1000F700127F271202827F071202B08F127A0079CD
:100107000D12015EAB33AA34A935753A207FA012D0
:0C011700016512026E7D0F7F2002028243
:1002210012008F12023C7B007A0079131200E71250
:0B02310002A37DFF7F2712028280EBFA
:10000F00020221E493A3F8E493A34003F68001F2E4
:10001F0008DFF48029E493A3F85407240CC8C333F2
:10002F00C4540F4420C8834004F456800146F6DFC1
:10003F00E4800B0102040810204080900197E47EB9
:10004F00019360BCA3FF543F30E509541FFEE493B6
:10005F00A360010ECF54C025E060A840B8E493A37D
:10006F00FAE493A3F8E493A3C8C582C8CAC583CAA8
:10007F00F0A3C8C582C8CAC583CADFE9DEE780BE60
:0101C8000036
:10012300BB010689828A83E0225002E722BBFE02DA
:09013300E32289828A83E493220D
:10013C00F8BB010DE58229F582E5833AF583E8F0F9
:10014C00225006E92582C8F622BBFE05E92582C8A5
:02015C00F2228D
:00000001FF
